:020000040800F2
:1000000010F50020D50300080D2F00083D29000839
:100010000B2F00084F2300088D400008000000004F
:1000200000000000000000000000000015030008B0
:100030005123000800000000710300087D3C000807
:10004000EF030008EF030008EF0300086D3A000813
:10005000EF030008EF03000855230008EF03000832
:10006000AD230008052400085D240008EF03000804
:10007000EF030008EF030008EF030008EF03000898
:10008000EF030008EF030008EF030008EF03000888
:10009000EF030008EF030008EF030008B524000891
:1000A000EF030008EF030008EF030008EF03000868
:1000B000EF030008EF030008EF030008EF03000858
:1000C000EF030008EF030008EF030008EF03000848
:1000D000EF030008113E0008EF030008AD3E0008E2
:1000E000EF030008F1350008EF030008EF030008F4
:1000F000EF030008EF030008EF030008EF03000818
:10010000EF030008EF030008EF030008EF03000807
:10011000EF030008EF030008EF030008EF030008F7
:10012000EF030008EF030008EF030008EF030008E7
:10013000EF030008EF030008EF030008EF030008D7
:10014000EF030008EF030008EF030008EF030008C7
:10015000EF030008EF030008EF030008EF030008B7
:10016000EF030008EF030008EF030008EF030008A7
:10017000EF030008EF030008EF030008EF03000897
:10018000EF030008EF03000800F002F800F0B2F8F7
:100190000AA090E8000C82448344AAF10107DA45E2
:1001A00001D100F0A7F8AFF2090EBAE80F0013F082
:1001B000010F18BFFB1A43F0010318472C7C010004
:1001C0004C7C01000A444FF0000C10F8013B13F086
:1001D000070408BF10F8014B1D1108BF10F8015BA0
:1001E000641E05D010F8016B641E01F8016BF9D193
:1001F00013F0080F1EBF10F8014BAD1C0C1B09D1EA
:100200006D1E58BF01F801CBFAD505E014F8016B5B
:1002100001F8016B6D1EF9D59142D6D370470000ED
:100220000023002400250026103A28BF78C1FBD8FF
:10023000520728BF30C148BF0B6070476E2900F0DD
:100240000285702900F0018266290EF098826529E6
:100250000EF0958267290EF0928261290EF091824C
:1002600003681B0A28BF41F08001692900F07281F0
:10027000642900F06F81752900F06C816F2900F00E
:10028000FB85782900F0CD81E92900F09585E429E6
:1002900000F09285F52900F08F85EF2900F0F885B0
:1002A000F82900F0CC810368DB0928BF41F0800108
:1002B000632900F00485732900F00985E32901F022
:1002C0003182F32901F03682002070471FB50EF00D
:1002D0004CFA01F0E9FA0400002000210DF0AAFC1C
:1002E000401C6060002000210DF0BAFCE0601FBDE2
:1002F00010B510BD01F0B3FA1146FFF7E7FF09F0A2
:1003000049F901F091FB03B4FFF7F2FF03BC04F0DD
:10031000E7FC00002C4B19680868B0E8F04F80F348
:100320000988BFF36F8F4FF0000080F3118870478A
:100330000000000008480068006880F308884FF05B
:10034000000080F3148862B661B6BFF34F8FBFF32D
:100350006F8F00DF00BF00BF08ED00E0DFF80C008A
:10036000016841F470010160704700BF88ED00E052
:10037000EFF30980BFF36F8F134B1A681EF0100F55
:1003800008BF20ED108A20E9F04F106009B44FF04B
:10039000500080F31188BFF34F8FBFF36F8F0CF0C5
:1003A0000DFD4FF0000080F3118809BC1968086842
:1003B000B0E8F04F1EF0100F08BFB0EC108A80F3C9
:1003C0000988BFF36F8F704704080020EFF30580A2
:1003D000704700000A4880470A480047FEE7FEE7EA
:1003E000FEE7FEE7FEE7FEE7FEE7FEE7FEE708F0D2
:1003F000E9FAFEE704480549054A064B7047000044
:10040000A93C00088901000810D5002010F5002043
:1004100010E5002010E50020704710B54C1084EA6C
:10042000530404D54042C1F1000138BF491E1B42AC
:1004300004D55242C3F1000338BF5B1E00F016FB27
:1004400014F0804F04D04042C1F1000138BF491E72
:1004500014F0004F04D05242C3F1000338BF5B1EBA
:1004600010BD00000A46014900F036BCDC07002040
:100470000FB4044910B503AA029800F02DFC10BC7B
:100480005DF814FBDC0700200FB41CB5084B06AA6E
:100490007B4469460090059800F0EFFB044600207D
:1004A000694600F0FDFB20461CBC5DF814FB000013
:1004B0000D08000070B5044685690068C10601D5C5
:1004C000302600E02026C00707D070BDD4E9012106
:1004D00030469047206A401C20626D1EF6D570BDE4
:1004E00070B5044685690078C00707D170BDD4E9AE
:1004F000012120209047206A401C20626D1EF6D505
:1005000070BD70B50C460546012A05D028788006D6
:1005100000D5EA69002302E0012305E05B1C934259
:1005200002D2E05C0028F9D1A869E618C01AA861D7
:10053000286A184428622846FFF7BCFF04E0D5E982
:10054000012114F8010B9047B442F8D32846FFF775
:10055000C7FF70BD2DE9F0410646002410687529DB
:10056000314616A510D000F003FB002802DA404205
:1005700013A507E031688A0701D512A502E04907F3
:1005800004D511A5012401E000F0FBFA00210A22A4
:1005900006F1240709E0B0FBF2FCB0FBF2F302FB2A
:1005A0001C00303078541846491C0028F3D12346EB
:1005B0002A463046BDE8F04100F0ECBA00000000E9
:1005C0002D0000002B00000020000000F0B40D46BC
:1005D0000188090502D5214C7C4402E01F4C7C4473
:1005E0000E34002100F1240608E002F00F07120982
:1005F000E75D42EA03721B097754491C52EA03077C
:10060000F3D102780023120704D5702D06D009B16A
:10061000022311342246F0BC00F0BCBA012310348E
:10062000F8E770B504460D462146106800F0A9FAB7
:10063000024629462046BDE870400023C6E7D21D89
:1006400022F00703D3E90023C0E70368126843F0F0
:10065000200303600823C3610023B7E7F46E0100A1
:100660002DE9F05F894604464FF0000ADFF874B1C7
:10067000FB44C0F820A02046E1688847002874D0D9
:10068000252806D0D4E901219047206A401C206229
:10069000F1E700265F462046E168884720280546A6
:1006A00007DB312D05D2781910F8200C08B106436C
:1006B000F1E7B00701D526F00406C4F81CA0002716
:1006C000C4F818A02A2D09D0284604F055FA38B3EA
:1006D00004EB8708303DC8F8185019E059F8041B9E
:1006E000204604EB87029161E1688847012F0546A7
:1006F00018D1E069002820DA26F020061DE0D8F89D
:10070000180000EB800005EB40003038C8F81800F6
:100710002046E1688847054604F02EFA0028EED10D
:10072000012F0AD02E2D08D12046E16888477F1C72
:100730000546022F46F02006C4DBA069002803DA34
:10074000404246F00106A061F00701D026F01006F5
:100750006C2D0BD0682D09D04C2D39D06A2D35D099
:10076000742D35D07A2D33D016E038E0E1682F466D
:1007700020468847B842054609D16C2F26D04FF451
:100780008060E168064320468847054604E06C2FF8
:100790001AD04FF4807006430DB3A5F1410019281B
:1007A00002D8203546F400664A462946204626608F
:1007B0004E46FFF743FD80B101280BD0F61D26F011
:1007C000070000F1080956E74020E4E78020D8E759
:1007D0000020D6E706F104094DE7284652E7206AD3
:1007E000BDE8F09F846E010070B5064600F03AF94E
:1007F0000468054630460A22002100F053FB2C60B5
:1008000070BD0000014A00F085BB000078080020A0
:1008100030B505460B462A4613F8014B12F8010B7A
:1008200008B1A042F8D01CB1002802D06D1CF1E73D
:10083000284630BD40EA010310B59B070FD1042ABA
:100840000DD310C808C9121F9C42F8D020BA19BA9B
:10085000884201D9012010BD4FF0FF3010BD1AB100
:10086000D30703D0521C07E0002010BD10F8013B55
:1008700011F8014B1B1B07D110F8013B11F8014B7C
:100880001B1B01D1921EF1D1184610BD10B5431C9F
:1008900002E010F8011B71B18107FAD14FF001326B
:1008A00002C88C1A8C4314EAC211F9D0C01A0A0685
:1008B00003D0C01E10BDC01A10BD0A0401D0801E96
:1008C00010BD0902FCD0401E10BD032A40F230804A
:1008D00010F0030C00F0158011F8013BBCF1020F81
:1008E000624498BF11F801CB00F8013B38BF11F802
:1008F000013BA2F1040298BF00F801CB38BF00F819
:10090000013B11F0030300F02580083AC0F0088095
:1009100051F8043B083A51F804CBA0E80810F5E779
:10092000121D5CBF51F8043B40F8043BAFF300805C
:10093000D20724BF11F8013B11F801CB48BF11F8D1
:10094000012B24BF00F8013B00F801CB48BF00F8A1
:10095000012B704710B5203AC0F00B80B1E8185059
:10096000203AA0E81850B1E81850A0E81850BFF499
:10097000F5AF5FEA027C24BFB1E81850A0E8185038
:1009800044BF18C918C0BDE810405FEA827C24BF8C
:1009900051F8043B40F8043B08BF7047D20728BF1A
:1009A00031F8023B48BF11F8012B28BF20F8023B69
:1009B00048BF00F8012B704702F0FF0343EA03220F
:1009C00042EA024200F002B84FF000020429C0F0EF
:1009D000128010F0030C00F01B80CCF1040CBCF171
:1009E000020F18BF00F8012BA8BF20F8022BA1EBC3
:1009F0000C0100F00DB85FEAC17C24BF00F8012BA8
:100A000000F8012B48BF00F8012B70474FF000029F
:100A100000B5134694469646203922BFA0E80C50F4
:100A2000A0E80C50B1F12001BFF4F7AF090728BFCF
:100A3000A0E80C5048BF0CC05DF804EB890028BF4B
:100A400040F8042B08BF704748BF20F8022B11F074
:100A5000804F18BF00F8012B7047704770477047F0
:100A60007047000000487047B0D4002053EA020CE1
:100A700000F069802DE9F04B4FF00006002B1FBFFE
:100A8000B3FA83F503FA05F424FA05F65E4012BFC3
:100A90001643B2FA82F502FA05F4C5F120051EBF2D
:100AA00022FA05FC44EA0C04203556EA044C4FEACD
:100AB000144418BF641C4FF000084FF00009904226
:100AC00071EB030C39D3002919BFB1FA81F701FA90
:100AD00007F6B0FA80F700FA07F6C7F120071EBF45
:100AE00020FA07FC46EA0C062037B6FBF4FCA7EB1D
:100AF0000507103F07F01F0BCBF120060CFA0BFB8C
:100B00002CFA06F644BFB3460026202FA4BF5E464B
:100B10004FF0000B5BEA060C08BF4FF0010B19EB1E
:100B20000B09ABFB027C48EB0608C01B06FB02CCA2
:100B30000BFB03CC71EB0C01C1E70B4602464146AF
:100B40004846BDE8F08B13B54FF000004FF00001B0
:100B5000AFF30080BDE81C40704710B5FFF782FF7F
:100B6000006810BD10B50446FFF77CFF046010BD9F
:100B700009684A0501D540B27047C905FCD500B2E5
:100B8000704709684A0501D5C0B27047C905FCD550
:100B900080B270472DE9F0470D46994692460446CB
:100BA00000F124080168880604D5E06921F01001ED
:100BB000216000E00120A84201DD471B00E0002782
:100BC000A1697A1902EB0900081AA0612078C00611
:100BD00002D42046FFF76EFC002608E0D4E901218C
:100BE0001AF806009047206A401C761C20624E4589
:100BF000F4DB2078C0060AD52046FFF75BFC06E050
:100C0000D4E9012130209047206A401C2062381E20
:100C1000A7F10107F4DC07E0D4E9012118F8050089
:100C20009047206A401C2062281EA5F10105F3DCD4
:100C30002046FFF755FC2078000602D50220BDE8CB
:100C4000F0870120FBE711680268006A530501D5AF
:100C500008700AE0D30501D5088006E0130603D525
:100C6000C217C1E9000200E00860012070470000DF
:100C700001694A1C02610878704700B58FB0CDE960
:100C800001310021059105497944CDE90310114650
:100C90006846FFF7E5FC0FB000BD0000E5FFFFFF71
:100CA0000A6802F8010B0A60704710B5436913B176
:100CB000AFF3008001E0FFF724FC012010BD1278A3
:100CC00000F124010A7000224A700122EDE7116848
:100CD0004FF0FF32E9E70000074B70B50D467B444B
:100CE000FFF7CBFF0446284600F077FD10B14FF028
:100CF000FF3070BD204670BD637D00002DE9FF5FB1
:100D000015468A460446DFF8AC80F8440027D8E947
:100D100000103E46CDE9001010E03AF816106A4681
:100D200002A800F05EFD411C07D02178890603D59A
:100D3000E269391891420DD80744761C2078800664
:100D400002D5E069B84205DDAE42E6DB3AF81600AE
:100D50000028E2D1A069C01BA0612046FFF7AAFBD2
:100D6000D8E90010CDE90010002017E03AF818107B
:100D70006A4602A800F035FDB0F1FF3F81460BD076
:100D800000250DF1080B05E0D4E901211BF8050051
:100D900090476D1C4D45F7D308F10100B0428046E5
:100DA000E4DB206A384420622046FFF799FBBDE867
:100DB000FF9F0000526801002DE9F0418046D21DDE
:100DC00022F007020025D2E90002F52915A614D069
:100DD000011E72F1000106DA0023D0EB030063EB81
:100DE000020211A608E0D8F800108B0701D50FA663
:100DF00002E0490701D50EA601251146002408F19D
:100E0000240704E000F0B4F830323A55641C50EA8C
:100E10000102F7D12B46324621464046BDE8F0415B
:100E2000FFF7B8BE000000002D0000002B000000FE
:100E30002000000030B4002100F1240408E002F09A
:100E40000705D208303542EA4372DB086554491C75
:100E500052EA0305F3D10468002310A2250708D540
:100E600004F020040C4304D0C46901230CA2641EC6
:100E7000C46130BCFFF78EBE10B504462146106831
:100E8000FFF77FFE02462046BDE810400023D1E771
:100E9000D21D22F00701D1E90023CBE700000000BA
:100EA000300000002DE9F04791460F468046044689
:100EB000002614F8015B2DB100F052F80068405D87
:100EC000C007F6D12B2D02D02D2D18D0641E4A4616
:100ED0003946204600F032FC27B13968A14201D1E1
:100EE000C7F800804FF0020471050BD5404200287E
:100EF00003DDFFF7B7FD0460A007BDE8F08746F407
:100F00008066E4E70028F8DAFFF7ACFD04606FF0D4
:100F10000040F2E72DE9F04115460E46040002D1EB
:100F20002C6804B90BA4204600F08BFC0444207804
:100F300070B127463146384600F073FC04442078EF
:100F400010B1002004F8010B38462C60BDE8F08198
:100F50000027F9E70000000000487047B0D40020E7
:100F600010B500F0A1FC001D10BD00BFC9CC0000F1
:100F700030B5B0F10A024FEA900E71F100034EEA6B
:100F8000817EB0EB0E0061EB91014FEA101E4EEA3C
:100F9000017E10EB0E0041EB11114FEA102E4EEACC
:100FA000016E10EB0E0041EB11214FEA104E4EEA9C
:100FB000014E10EB0E0041EB1141401841F10001D0
:100FC0004FEAD00040EA41704FEAD10110EB8005B2
:100FD0004FEA810444EA907444EB01046D1944EB38
:100FE0000404521BA3414FF0000348BF0A3200D54E
:100FF00030BD401C41F1000130BD70472DE9FF4F6D
:101000000C461E464FF0FF378BB0D2E90001DDF8E9
:1010100060800A908A46C1F30A5505B93D46002111
:1010200008464FF00000BAF1000F00F4400005DA66
:1010300000EB80004FF4400101EA50004FEA905964
:10104000B9F1010F00DDB9460A9850EA4A000ED006
:1010500044F61050A5F2FF3545432F14B8F1000FA8
:101060001ED07542291E1EDDC9F100021CE0B8F138
:10107000010F4FF0000001D0302103E0F24305E002
:101080002154401CB042FBDB304600220021215499
:101090000B99C1F80880C1E900200FB0BDE8F08FBE
:1010A000BD1B6D1CDEE74A4600DA694206A800F067
:1010B0004DFC06AB93E8070003AB83E807005046FE
:1010C0000A9900F0F7FC8DE80700A0F500501F38E2
:1010D00000900398002D09DD42F21F014A460844A2
:1010E00003A90390684600F056FF08E0A0F5005001
:1010F0004A461F3803A90390684600F060FF8DE858
:1011000007000004000C03D04FF0FF30410800E05E
:101110001046B8F1000F03D00022009215461EE0E1
:10112000751E05D4FFF724FF303262556D1EF9D5C8
:10113000B3460122084302D000227F1C04E020783D
:10114000302801D100227F1E002A099786D01DE099
:10115000112D07DAFFF70CFF303262556D1C50EA93
:101160000102F5D1084302D00098C8B10EE0002179
:10117000681E05E0235C625C63542254401E491CD7
:101180008142F7DBAB46A81B401E0990002004F803
:101190000B000B98099AC0F80880C0E9002B7CE787
:1011A00011264FF0000859E72DE9F04F8846044614
:1011B000D21D22F0070191B0D1E90001CDE90A0169
:1011C00002F0FBFF02460B98C00F01D02D2007E074
:1011D0002068810701D52B2002E0202101EAC00010
:1011E000032A099001D0072A05DB03464146204621
:1011F00000F05EFB0BE12078800601D5E06900E09D
:101200000620B8F1650F814606D0B8F1660F18D0F8
:10121000B8F1670F70D131E00020B9F1110F0090E3
:1012200001DB112301E009F101030AAA01A90CA8BD
:10123000FFF7E4FEDDE90C70002609F101058346A5
:1012400047E001204B4600904FF000470AAA01A951
:101250000CA8FFF7D3FEDDE90DB00C995D46002622
:1012600010B909F101000D18B9EB050003D4C0F164
:10127000FF3609F10105A5EB09002BE0B9F1010FDB
:1012800001DA4FF001090020B9F1110F0090484632
:1012900001DD112300E003460AAA01A90CA8FFF70B
:1012A000ADFEDDE90C704D46002683462078000730
:1012B0000AD4AB4500DA5D4601A8012D04DD4119D1
:1012C00011F8011C302907D04F4502DA17F1040F3D
:1012D00004DA012082460FE06D1EEEE7002F02DCEB
:1012E000ED1B3E4403E0781CA84200DD7D1CB81BCA
:1012F00000F1010A4FF000472078000703D4AA4507
:1013000001DB4FF0FF3A0021B7F1004F0DF1430828
:101310008DF8431024D002202B23002F01DA7F42C6
:101320002D230A21021EA0F1010000DC5FB197FB12
:10133000F1FC97FBF1F201FB1C7C17460CF1300C21
:1013400008F801CDEEE7A8F1010003702188090536
:1013500001D5452100E06521A0F1010800F8011C3C
:1013600009980FA9A1EB0807FF1D00B10120411941
:1013700001EBEA70A1693844081A401EA061207888
:10138000C00602D42046FFF795F8099828B1D4E9A1
:1013900001219047206A401C20622078C00622D597
:1013A0002046FFF787F81EE0002E04DBB34502DD80
:1013B00001A8805D00E03020D4E901219047206A37
:1013C000401C2062761CAAF101005FEA000A0AD1E3
:1013D00000F06AFAC0680168405CD4E901219047D6
:1013E000206A401C2062281EA5F10105DCDC07E014
:1013F000D4E9012118F8010B9047206A401C2062B3
:10140000381EA7F10107F3DC2046FFF769F8032037
:1014100011B043E62DE9F04F04460D46D21D22F0EF
:10142000070089B0D0E9009248461746394602F0D5
:10143000C4FE0246F80F01D02D2307E02068810783
:1014400001D52B2302E0202101EAC0038DF82030D2
:101450000BB1012000E00020032A824601D0072AB8
:1014600004DB2946204600F023FA3DE1207880067F
:1014700001D40D2500E0E569C7F30A560D2D49DAC0
:1014800000214FEA175B08464FF00000002F00F4E0
:10149000400007DA00EB80004FF4400100EBD07011
:1014A00001EA60008115012901DD4FF0FF310022C2
:1014B0004FEA850CBCF1180F06D31346ACF11800A7
:1014C0004FF08052C24003E04FF4801323FA0CF334
:1014D0000CF10C0CBCF1200F04D3ACF1200C09FA78
:1014E0000CF001E007FA0CF000294FF0004801DD94
:1014F00018B90FE00ED140450CD319EB02095F413A
:1015000021B9404502D19F4329EA0209BBEB175F8D
:1015100000D0761C2088000502D57B48784402E084
:1015200079487844193808AA302302F80A30037C35
:101530000AF10101002E0AF1020A53546A4602DC44
:101540004FF0300101E04FF031014FF001088DF80C
:10155000001002D0A6F2FF3603E059EA470100D09E
:101560006A4E002D02DC2178090704D54FF00208ED
:101570002E218DF80110C44600210BE0C7F3034370
:101580003F01C35C491C6D1E02F80830052908F1B3
:10159000010801DA002DF1DC00210CE000EB1973E9
:1015A000491C1B786D1E082902F808304FEA0919FA
:1015B00008F1010801DA002DF0DC2178890602D556
:1015C00014E0A8F10108E04505DD02EB080111F87F
:1015D000011C3029F5D0B8F1000F07DD02EB08013E
:1015E00011F8011C2E2901D1A8F10108002D05DDFB
:1015F0003E2102F808106D1E08F10108407C002E03
:1016000002F8080008F1010804DA2D20764202F8F9
:10161000080002E02B2002F808000A214FF47A703B
:10162000864208F101080BDB96FBF0F3303302F839
:10163000083096FBF0F308F1010800FB136601E0A7
:10164000642E0CDB642096FBF0F3303302F8083094
:1016500096FBF0F308F1010800FB136601E00A2E87
:1016600006DB96FBF1F0303002F8080008F10108C3
:1016700096FBF1F001FB1060303002F80800A16920
:1016800008F1010808EB050202EB0A00081AA06144
:101690002078C00602D42046FEF70CFF216A08AE6F
:1016A00001EB0A00206204E0D4E9012116F8010BE5
:1016B0009047BAF1010AF7D22078C00602D5204639
:1016C000FEF7F8FE6E4609E016F8010B3E280FD033
:1016D000D4E901219047206A401C2062B8F101083A
:1016E000F2D22046FEF7FCFE09B00320BDE8F08FE1
:1016F000206A2844206203E0D4E901213020904789
:101700006D1EEBD3F8E70000FB60010002FCFFFF59
:1017100010B5436913B1AFF3008001E0FFF7EEFAB3
:10172000012010BD128800F1240182840022C284AD
:101730000122EDE711684FF0FF32E9E72DE9F05F94
:10174000824615468B4600270AF10104B946007807
:10175000302801D09DB113E014F8010B012778283F
:1017600003D0582801D045B10AE00DB1102D07D1A2
:10177000002714F8010B102502E0082500E00A25D7
:101780000026B0460EE005FB080005FB06F1012728
:101790001FFA80F801EB1046B6F5803F00D3B9463A
:1017A00014F8010B294600F0C3F80028EBDABBF16E
:1017B000000F05D00FB1641E00E05446CBF8004086
:1017C000B9F1000F06D0FFF74DF902210160C81EE4
:1017D000BDE8F09F48EA0640FAE7007B00F0800091
:1017E000704770B516460C460546FFF7B9FB03680F
:1017F00093F80101012806D0FF2C0FD8185D68B1BD
:1018000001202C7070BDD3F807013246214603F247
:10181000071303442846BDE8704018474FF0FF30D7
:1018200070BD30B503461D781DB10A4603E0AC42D9
:1018300001D1181A30BD12F8014B002CF7D15B1CF6
:10184000F1E730B503461D783DB10A4612F8014B69
:101850001CB1AC42FAD15B1CF5E7181A30BD7546D5
:10186000FFF77AFBAE4605006946534620F00700B5
:10187000854618B020B5FEF7BDFDBDE820404FF00D
:1018800000064FF000074FF000084FF0000B21F06A
:101890000701AC46ACE8C009ACE8C009ACE8C00937
:1018A000ACE8C0098D46704700487047D0D400208E
:1018B0002DE9F0411F46044603260168072A01F47A
:1018C000006004DB08B116A505E016A503E008B129
:1018D00015A500E015A521F010002060A069C01E2C
:1018E000A0610FB1401EA0612046FEF7E3FD4FB19D
:1018F000D4E9012138469047206A401C2062C01C70
:10190000206206E0206AFAE7D4E9012115F8010B0C
:101910009047761EF8D22046FEF7E2FDBDE8F08142
:101920004E414E006E616E00494E4600696E660083
:101930003A2800D2303820F02002412A01D3A2F107
:101940003700884201D34FF0FF3070472DE9F04750
:10195000814616468AB0334878440DC88DE80D009C
:1019600030487844801C03AC0DC884E80D0041F673
:101970009B300844372190FBF1F290FBF1F5A5F183
:10198000800501FB12041B3C02D56442012000E0EB
:101990000020DFF890A080460027FA44AAF1BE0A92
:1019A0000DE0E00709D03246684607EB47010AEB35
:1019B000810100F004FB8DE8070064107F1C002CFF
:1019C000EFD1184F7F44AC3F18E0E80714D007EB85
:1019D00004100DF1180A90E80E008AE80E00C068A5
:1019E000F04201D198190890324606A903A800F0E8
:1019F000E6FA03AB83E807006D10641C002DE4D108
:101A000032466946B8F1000F03A802D000F0C3FACD
:101A100001E000F0D4FAC9E90001C9F808200AB0D1
:101A2000BDE8F087505D01000446AFF3008020461A
:101A3000FEF769FC4FF0013C50F8042B51F8043BD1
:101A40009A4221D1A2EB0C03934313EACC1317D192
:101A500050F8042B51F8043B9A4215D1A2EB0C0329
:101A6000934313EACC130BD150F8042B51F8043BE9
:101A70009A4209D1A2EB0C03934313EACC13DBD0B7
:101A80004FF00000704700BFD01A01BAB1FA81F1DF
:101A900001F0180122FA01F0CB40C1F12001DBB2C4
:101AA000C0B2C01A2CFA01F3D11A914311EAC31142
:101AB000E6D170475FEA400C08BF91F0000F4FEA93
:101AC0008C234FEAC12243EA51514FEA1C5018BF00
:101AD00000F5F0404FEA300018BF41F000415FEAE6
:101AE0006C5C00F02980BCF1FF3F08BF40F08040F3
:101AF0007047130C06BF12044FF0100C4FF0000C8F
:101B0000130E04BF12020CF1080C130F04BF1201D4
:101B10000CF1040C930F04BF92000CF1020CD30FD4
:101B200004BF52000CF1010C11464FF00002A0F16D
:101B30001F00A0EB0C00704711F0004F08BF70476A
:101B400031F000413FF4D5AF0B0C06BF09044FF054
:101B5000100C4FF0000C0B0E04BF09020CF1080C26
:101B60000B0F04BF09010CF1040C8B0F04BF89009B
:101B70000CF1020CCB0F04BF49000CF1010CCCF1AD
:101B80002003A0EB0C0022FA03F302FA0CF241EA64
:101B9000030100F10100704720F07F4C80EA030050
:101BA00023F07F47ACEB070303F57C5300F00040C4
:101BB00003F1FF032DE980494FEA154B09B44FEAC1
:101BC000144325EA0B4E24EA03480FF2042606EBE1
:101BD000132749083E785FEA320203FB0667C7F520
:101BE000000707FB06F64FEA54374FEAD64606F1E0
:101BF000020607FB066CCCF1005C4FEA1C472CEA9E
:101C0000074C07FB06F40CFB06F504EB15464FEA00
:101C1000961634BF00204FF000404FEAD13706FB44
:101C200007FC4FEA1C4C0CFB0BF7D21B03FB0CF719
:101C300061EB07010CFB0EF7B0EB074072EB1742AC
:101C40000CFB08F734BFA2EB0742B2EB074261EB93
:101C500017414FEA0C444FEA910706FB07FC4FEA95
:101C60001C4C0CFB0BF7B0EBC74072EB573203FB7D
:101C70000CF734BFA2EBC742B2EBC74261EB57315E
:101C80000CFB0EF7B0EBC70072EB57720CFB08F7BA
:101C900034BFA2EBC702B2EBC70261EB5771039FDF
:101CA0004FEA816141EA921104EBCC044FEAD1374B
:101CB0004FEA826206FB07FC42EA90124FEA80601C
:101CC0004FEA1C4C0CFB0BF7D21B03FB0CF761EB30
:101CD00007010CFB0EF7B0EB074072EB17420CFB51
:101CE00008F734BFA2EB0742B2EB074261EB1741A2
:101CF0004FEA8C554FEA910704EB9C2406FB07FC46
:101D00004FEA1C4C0CFB0BF7B0EBC74072EB5732A1
:101D100003FB0CF734BFA2EBC742B2EBC74261EB47
:101D200057310CFB0EF7B0EBC70072EB57720CFB90
:101D300008F734BFA2EBC702B2EBC70261EB5771E1
:101D400015EB4C254FEA816141EA92114FEA82621C
:101D50004FEAD13742EA901206FB07FC44F1000437
:101D60004FEA80604FEA1C4C0CFB0BF7D21B03FBC5
:101D70000CF761EB07010CFB0EF7B0EB074072EBC1
:101D800017420CFB08F734BFA2EB0742B2EB074245
:101D900061EB174115EB1C154FEA813141EA924185
:101DA0004FEA823242EA90424FEA80304FEA0C76A4
:101DB00044F1000448EA03434EEA0B484FF0000E9A
:101DC000B2EB080C71EB030724BF624639464EEBB9
:101DD0000E0E4FF0000B0018524149414BEB0B0B1C
:101DE000B2EB080C71EB03077BF1000B24BF6246DA
:101DF00039464EEB0E0E4FF0000B00185241494190
:101E00004BEB0B0BB2EB080C71EB03077BF1000BF8
:101E100024BF624639464EEB0E0E51EA020718BF48
:101E200046F0010616EB0E7655F1000254F1000162
:101E300003D5BDE88901BDE80088BDE88901BDE89A
:101E40000048B619524141EB0101A3F1010370476B
:101E500080807F7E7D7C7B7A7978777676757473E7
:101E6000727171706F6E6E6D6C6C6B6A6A696868A6
:101E7000676666656464636362616160605F5F5E3C
:101E80005E5D5D5C5C5B5B5A5A59595858575756B2
:101E90005655555554545353525252515150505017
:101EA0004F4F4F4E4E4D4D4D4C4C4C4B4B4B4A4A69
:101EB0004A494949484848474747474646464545AD
:101EC00045444444444343434342424242414141E6
:101ED000002B26D4770021D01CB54FEA370703B476
:101EE0004FF010004FF010014FF000000FBCBDE8A4
:101EF00010400BF1010BBBF1010F08BF5FEA1707A0
:101F000022BF12F1010211F101014FF0004143F132
:101F1000000300F0004043EA00007047F9D357087F
:101F2000DAE746EA064613F1400F4FEA16461FDD90
:101F300013F1200FDFBF16430A46002120335B4216
:101F4000C8D0C3F1200746EA064602FA07F74FEA6F
:101F5000164646EA0706C3F1200722FA03F201FA01
:101F600007F721FA03F14FF0000342EA0702B1E755
:101F700046EA020646EA06464FEA164646EA0106E1
:101F8000BCBF46EA0646360C4FF000034FF0000295
:101F90004FF000019EE72DE9C048934630B491E828
:101FA000380007C831EA400C48BF34EA430C03D577
:101FB000FFF7F2FDFFF78CFFF0BCBDE800882DE9CC
:101FC000C048934630B491E8380007C810F0804FFD
:101FD00008BF13F0804F03D100F005F8FFF778FF3A
:101FE000F0BCBDE8008820F07F4780EA030023F0C2
:101FF0007F4C07EB0C03A3F57C5300F00040A3F1EA
:10200000FE0392F0000F00F0B38095F0000F00F097
:1020100077802DE901494FEA11404FEA144621EA41
:10202000004800FB06FC24EA064708FB06F607FB0F
:1020300008F800FB07F718EB06484CEB164C4FEA84
:10204000124B18EB07484FEA15464CEB174022EAB3
:102050000B4E0BFB06FC25EA06470EFB06F607FBBC
:102060000EFE0BFB07F71EEB064E4CEB164C4FF02B
:1020700000061EEB074E4CEB174B18EB0B0840F11C
:10208000000018EB0E0B58EB000840F100008F1A0F
:102090004FF000013CBFC943661B14BFB5EB040CF5
:1020A00000213CBFC943F61B4FEA17444EEA8E0E8F
:1020B00027EA04454FEA1C4704FB07622CEA074C59
:1020C00005FB07F70CFB05F604FB0CFC16EB0746BB
:1020D00042EB174216EB0C4642EB1C421BEB06068A
:1020E00058EB0202414146EA9E0601D5BDE801894E
:1020F000B619524141EB0101A3F10103BDE8018989
:102100004FEA14454FEA114724EA054621EA074CF5
:1021100005FB07F406FB07F70CFB06F105FB0CFCBF
:1021200011EB074144EB17444FEA124711EB0C4106
:1021300044EB1C4422EA074C05FB07F206FB07F7B9
:102140000CFB06F605FB0CFC16EB074642EB1742B0
:1021500016EB0C4642EB1C456A1854F1000148BFCF
:102160007047B619524141EB0101A3F101037047D9
:1021700095F0000F37D04FEA11424FEA144721EA99
:10218000024624EA074C02FB07F106FB07F70CFBAB
:1021900006F402FB0CFC14EB074441EB17414FEA39
:1021A000154714EB0C4441EB1C4125EA074C02FB9C
:1021B00007F506FB07F70CFB06F602FB0CFC16EB1B
:1021C000074645EB174516EB0C4645EB1C4212192A
:1021D00051F1000148BF7047B619524141EB01016E
:1021E000A3F1010370474FEA14454FEA114724EA6F
:1021F000054621EA074C05FB07F106FB07F70CFB38
:1022000006F24FF0000605FB0CFC12EB074241EB17
:10221000174112EB0C4251EB1C4148BF704792181A
:1022200041EB0101A3F101037047C943016070470D
:102230000029816802D041F0010101E021F0010193
:1022400081607047084B10B5D3F8042307490A4052
:10225000D0E900142143D0E9024004432143114353
:10226000C3F8041310BD000000200140E030FCFF63
:10227000C06C80B270470246002012680A4200D04B
:102280000120704730B542680F4B0C791A400B683B
:1022900042EA04221343436082680C4B4D791A4092
:1022A000D1E9034323438C6844EA450423431343A1
:1022B0008360C26A097D22F47002491EC9B242EAF3
:1022C0000151C16230BD0000FFFEFFFCFDF7FFC001
:1022D00070B5072609290AD9C568A1F10A0404EBDB
:1022E0004404A640B543A3401D43C56007E005690B
:1022F00001EB4104A640B543A3401D4305611F23E4
:10230000072A09D2446B521E02EB820293409C437F
:1023100091400C43446370BD0D2A09D2046BD21F57
:1023200002EB820293409C4391400C43046370BDD6
:10233000C46A0D3A02EB820293409C4391400C43E5
:10234000C46270BD816841F0804181607047FEE7E2
:102350007047000038B5002000905020EFF3118442
:1023600080F31188BFF34F8FBFF36F8F012000F010
:10237000C5F8012808D10B486A46012100680AF017
:10238000B5FD012000F0B4F8009838B106494FF0CF
:1023900080500860BFF34F8FBFF36F8F84F31188B5
:1023A00038BD00004C00002004ED00E038B50020EE
:1023B00000905020EFF3118480F31188BFF34F8F0A
:1023C000BFF36F8F042000F099F8012808D10B4863
:1023D0006A46022100680AF089FD042000F088F8AE
:1023E000009838B106494FF080500860BFF34F8F16
:1023F000BFF36F8F84F3118838BD00004C000020BC
:1024000004ED00E038B5002000905020EFF3118477
:1024100080F31188BFF34F8FBFF36F8F082000F058
:102420006DF8012808D10B486A46042100680AF0BB
:102430005DFD082000F05CF8009838B106494FF0C7
:1024400080500860BFF34F8FBFF36F8F84F3118804
:1024500038BD00004C00002004ED00E038B500203D
:1024600000905020EFF3118480F31188BFF34F8F59
:10247000BFF36F8F102000F041F8012808D10B48FE
:102480006A46082100680AF031FD102000F030F89B
:10249000009838B106494FF080500860BFF34F8F65
:1024A000BFF36F8F84F3118838BD00004C0000200B
:1024B00004ED00E010B55020EFF3118480F3118893
:1024C000BFF34F8FBFF36F8F402000F017F8012844
:1024D00008D101050548002200680AF007FD4020E8
:1024E00000F006F884F3118810BD00004C000020B5
:1024F0000149086070470000143C0140034A01464E
:10250000002012680A4200D001207047143C0140AC
:1025100030B51A4A8379016853B313688B4313604B
:10252000111D0B680468A3430B60017911440B680B
:10253000046823430B60114B083319680468A143F6
:1025400019601C1D21680568A94321604179102983
:1025500005D011440A68006802430A6030BD19685A
:10256000026811431960216800680143216030BD91
:102570000079104402688A43026030BD003C01408B
:10258000F0B5002201274FF0030C0B6807FA02F5A3
:102590002B40AB422CD1066853000CFA03F4A6433F
:1025A00006600E79D0F800E09E4046EA0E0606600E
:1025B0000E79012E01D0022E12D18668A6438660C4
:1025C0004E79D0F808E09E4046EA0E0686604668DE
:1025D000AE43466045688E799640B6B23543456055
:1025E000C568A543C560CC799C40C3681C43C460E2
:1025F000521C102AC9D3F0BD4B07DB0E9A40C90804
:1026000010B500EB8100016A0F249C40A1430162D8
:10261000016A1143016210BD018370472DE9F04743
:10262000DFF8A49082460024D9F8001021F440215C
:10263000C9F80010D9F80010C9F80010234E25463B
:1026400027464FF00108C6F8A072042005F0F4FBFD
:10265000C6F8A0826006040ED6F8240208B1641CF5
:10266000E4B2042005F0E8FB6D1CEDB2082DEAD3BE
:10267000BAF1000FC6F8A072D9F8001021F4402179
:10268000C9F80010D9F8001041F48021C9F80010F1
:102690000FD0C6F8A472032006F5287605F0CCFB0F
:1026A000C6F80080032005F0C7FB37602046BDE870
:1026B000F0874546C6F8A482022006F5287605F084
:1026C000BBFB35600220EEE7000402400080404280
:1026D0002DE9F04105461648016821F440210160CA
:1026E000016841F480210160124E0027C6F8A072F3
:1026F0003C464FF00108280602D5C6F8A48201E046
:10270000C6F8A4726806050E052005F095FBC6F80C
:10271000A082052005F090FBC6F8A072052005F008
:102720008BFB641CE4B2082CE5D3BDE8F08100000B
:10273000000402400080404270B50D48016821F459
:1027400040210160016841F480210160094C0120B1
:10275000C4F8A402C4F8A002042004F5287405F00B
:102760006BFB00256560042005F066FB256070BDED
:1027700000040240008040420E4810B5016821F478
:1027800040210160016841F4802101600A4C002071
:10279000C4F8A002C4F8A402042004F5287405F0CB
:1027A0004BFB012020606060BDE81040042005F074
:1027B00043BB0000000402400080404270B5124854
:1027C0000024016821F440210160016801600F4D7F
:1027D0000126C5F8A462032005F02EFBC5F8A0620F
:1027E000032005F029FB07E0641CE4B2FA2C03D9AE
:1027F000FFF7C2FF012070BDD5F824020028F3D1F5
:10280000C5F8A00270BD00000004024000804042F4
:1028100010B50446FFF790FFE620FFF759FFFFF7DA
:10282000CDFF18B1FFF7A8FF002010BD2046FFF72D
:102830004FFFFFF7C3FFFFF77FFFE720FFF748FFDA
:10284000FFF7BCFF0020FFF7E9FE0446FFF794FF07
:10285000204610BD70B515460C460646FFF76CFFC6
:10286000E620FFF735FFFFF7A9FF18B1FFF784FF58
:10287000012070BD3046FFF72BFFFFF79FFFFFF7EA
:102880005BFFE720FFF724FFFFF798FF08E0012C2C
:102890000CD00120FFF7C2FE641E05F8010BA4B2A4
:1028A000002CF4D1FFF768FF002070BD0020F1E795
:1028B00010B5FFF741FFE620FFF70AFFBDE8104023
:1028C000FFF75ABF70B50C460546FFF735FFE62007
:1028D000FFF7FEFEFFF772FF18B1FFF74DFF012073
:1028E00070BD2846FFF7F4FEFFF768FF2046FFF7AC
:1028F000EFFEFFF763FFFFF73FFF002070BD000012
:102900007CB50121022000F09FFD01208DF804001C
:102910008DF8060003218DF80510074D4FF4407423
:102920008DF80700009469462846FFF729FE2146E6
:102930002846FFF771FE7CBD00040240EFF30884D7
:1029400022A0FDF795FD26A02168FDF791FD28A0A6
:102950006168FDF78DFD2AA0A168FDF789FD2CA017
:10296000E168FDF785FD2EA02169FDF781FD606915
:1029700020F001012EA0FDF77BFDA06920F00101F0
:102980002FA0FDF775FD06F0C9FD0026304C314D36
:102990004FF000780127C4F8A462C4F8A862C5F813
:1029A000B462C5F8B86241464046401EFDD2C4F844
:1029B000A472C4F8A872C5F8B472C5F8B872491EFA
:1029C000FDD225A0FDF754FDE5E7000048617264E3
:1029D0004661756C745F48616E6465720D0A000033
:1029E0005B52305D3A3078253038580D0A000000CF
:1029F0005B52315D3A3078253038580D0A000000BE
:102A00005B52325D3A3078253038580D0A000000AC
:102A10005B52335D3A3078253038580D0A0000009B
:102A20005B5231325D3A3078253038580D0A00005B
:102A30005B4C525D3A3078253038580D0A00000062
:102A40005B50435D3A3078253038580D0A0000005D
:102A50000080424200004242486172644661756CE7
:102A6000743A506C6561736520636865636B2063BD
:102A70006F6465A3AC666F72206578616D706C657C
:102A800020737461636B2E2E2E0D0A0070B50D4CF1
:102A90000025C4F8A0520C48016821F440210160CF
:102AA000016841F480210160C4F8A452022004F5B9
:102AB000287405F0C1F901202060022005F0BCF95E
:102AC000256070BD00804042000402401CB5012119
:102AD000022000F0B9FC4FF44070012400908DF802
:102AE00004408DF8064003208DF805008DF807405E
:102AF00069460448FFF744FD0348C0F8A042C0F807
:102B0000A4421CBD000402400080404270B50D4C40
:102B10000026C4F8A0620C48016821F4402101603D
:102B2000016841F4802101600125C4F8A45202200B
:102B300004F5287405F080F92560022005F07CF981
:102B4000266070BD00804042000402402DE9F0473D
:102B5000814616480024016821F440210160016883
:102B60000160134E254627464FF00108C6F8A072B3
:102B7000022005F061F9C6F8A0826006040ED6F8BE
:102B8000240208B1641CE4B2012005F055F96D1C63
:102B9000EDB2082DEAD3B9F1000F04D0FFF776FFAC
:102BA0002046BDE8F087FFF7B1FFF9E700040240D7
:102BB000008040422DE9F04105461448016821F4A7
:102BC00040210160016841F480210160104E00271E
:102BD000C6F8A0723C464FF00108E809C6F8A40206
:102BE0006806050E022005F027F9C6F8A08202202B
:102BF00005F022F9C6F8A072022005F01DF9641C48
:102C0000E4B2082CE9D3BDE8F081000000040240E2
:102C10000080404270B50D48016821F440210160F8
:102C2000016841F480210160094C0120C4F8A4022C
:102C3000C4F8A002042004F5287405F0FDF800256E
:102C40006560042005F0F8F8256070BD00040240BE
:102C5000008040420E4810B5016821F44021016017
:102C6000016841F4802101600A4C0020C4F8A002F0
:102C7000C4F8A402042004F5287405F0DDF801204E
:102C800020606060BDE81040042005F0D5B8000069
:102C9000000402400080404270B5134800240168DF
:102CA00021F44021016001680160104D0126C5F842
:102CB000A462304605F0C0F8C5F8A062012005F016
:102CC000BBF80AE0641CE4B2012005F0B5F8FA2C68
:102CD00003D9FFF7BFFF012070BDD5F824020028FB
:102CE000F0D1C5F8A00270BD00040240008040424F
:102CF00010B5FFF7EBFE80216B2000F0BFF86420D9
:102D000005F098F800216B2000F0B8F8032000F0DF
:102D100081F8002000F079F8322000F098F80021C6
:102D2000382000F0ABF800216A2000F0A7F8FF215E
:102D3000232000F0A3F88021372000F09FF87520B1
:102D400000F011F8682801D0012010BD01216B208E
:102D500000F094F800216C2000F090F8C82000F0FA
:102D600076F8002010BD10B50446FFF753FFD020C1
:102D7000FFF720FFFFF790FF2046FFF71BFFFFF74D
:102D80008BFFFFF747FFD120FFF714FFFFF784FF0A
:102D90000020FFF7DBFE0446FFF75CFF204610BD76
:102DA0002DE9F0411C4615460F460646FFF732FF57
:102DB0007006000EFFF7FEFEFFF76EFF20B1FFF773
:102DC00049FF0120BDE8F0813846FFF7F3FEFFF729
:102DD00063FFFFF71FFF012000EB4600C0B2FFF7C3
:102DE000E9FEFFF759FF08E0012D0CD00120FFF7A5
:102DF000ADFE6D1E04F8010BEDB2002DF4D1FFF70E
:102E000029FF0020DEE70020F1E7C006010E1C20AC
:102E100000F034B8C006010E1B2000F02FB8BC280B
:102E200001D3012110E0622801D302210CE02A28FD
:102E300001D3032108E0142801D3042104E00A2867
:102E400001D3052100E006211A2000F017B810B5C3
:102E500004464FF47A70844201D9044602E0042CFF
:102E600000D20424B0FBF4F0401EC1B2192000F0DF
:102E700005F86008BDE81040FFF7D1BF70B50C46FB
:102E80000546FFF7C7FED020FFF794FEFFF704FFCB
:102E900050B92846FFF78EFEFFF7FEFE2046FFF7EB
:102EA00089FEFFF7F9FE18B1FFF7D4FE012070BDCF
:102EB000FFF7D0FE002070BD2DE9F0411D461646FB
:102EC0000C460746FFF7A6FE7806000EFFF772FED7
:102ED000FFF7E2FE60B92046FFF76CFEFFF7DCFE6D
:102EE00000240CE0285DFFF765FEFFF7D5FE20B15A
:102EF000FFF7B0FE0120BDE8F081641CE4B2B442EB
:102F0000F0D3FFF7A7FE0020F5E7FEE7704700F0DB
:102F10001F02012191404009800000F1E020C0F82B
:102F20008011704700F01F0201219140400980008C
:102F300000F1E020C0F800117047000030B50F2309
:102F4000C27801780125FAB1144A126801F1E02132
:102F500002F4E062C2F5E062C2F30722C2F10404A7
:102F6000D3404278A24084781C401443220181F867
:102F70000024007800F01F018D404009800000F11E
:102F8000E020C0F8005130BD01F01F008540480925
:102F9000800000F1E020C0F8805130BD0CED00E071
:102FA0000249084302490860704700000000FA0522
:102FB0000CED00E070B50E4D0024002104F1B000CE
:102FC00000F0FBF90021084600F0F7F9002110207D
:102FD00000F0F3F98021002001F0D8F805EBC410CF
:102FE0008021FDF7F1FC641CE4B2082CE5D370BD30
:102FF000B80800202DE9F04107461E46CCB2DFF8A4
:103000003080D51B0FE02146384600F02BF92946C9
:10301000002001F0BBF808EBC41029463844FDF746
:10302000D3FC641CE4B2B442EDD3BDE8F0810000EF
:10303000B808002010B500218D2000F0BEF9002155
:10304000102000F0BAF90021BDE81040AE2000F0D9
:10305000B4B910B500218D2000F0AFF90021142083
:1030600000F0ABF90021BDE81040AF2000F0A5B999
:103070002DE9F05F994692460C4680460025DDF822
:1030800028B017E02146404600F0ECF8AAEB08060D
:103090000BEB05073146384601F060F80748324629
:1030A00000EBC413394603EB0800FDF70EFC641C6B
:1030B0003544E4B24C45E5D3BDE8F09FB8080020A4
:1030C0000148006870470000780700207CB50121A6
:1030D0000A2000F0B9F901248DF804404FF40040B3
:1030E0008DF80640032600908DF8056000258DF8C8
:1030F000075069464048FFF743FA8DF80440A002A4
:103100008DF8064000908DF805608DF807506946EF
:103110003A48FFF735FAC82004F08CFE0021AE20B3
:1031200000F04BF90021084600F047F9002110207B
:1031300000F043F90021402000F03FF90021B020C9
:1031400000F03BF90021812000F037F90021FF2039
:1031500000F033F90021A62000F02FF90021A8206B
:1031600000F02BF900213F2000F027F90021C820B2
:1031700000F023F90021A12000F01FF90021D32045
:1031800000F01BF90021084600F017F90021D520B6
:1031900000F013F90021802000F00FF90021D82061
:1031A00000F00BF90021052000F007F90021D920DB
:1031B00000F003F90021F12000F0FFF80021DA20EF
:1031C00000F0FBF80021122000F0F7F80021DB20CE
:1031D00000F0F3F80021302000F0EFF800218D20FE
:1031E00000F0EBF80021142000F0E7F80021AF20F8
:1031F00000F0E3F87CBD000000040240000C024037
:1032000070B51649086010B1B42807D00EE000214F
:10321000C82000F0D2F80021A12005E00021C02044
:1032200000F0CBF80021A02000F0C7F80C4D0024DE
:10323000002104F1B00000F0C0F80021084600F0C1
:10324000BCF80021102000F0B8F805EBC410802174
:1032500000F084FF641C082CEAD370BD78070020BE
:10326000B808002010B50A460446002102F1B0005B
:1032700000F0A3F8102040EA1410002100F09DF89F
:1032800004F00F00BDE81040002100F096B80000E7
:103290002DE9F04114460E460746FFF7E3FF1148BB
:1032A000102100EB8410044600F058FF0E48214620
:1032B00000EBC610C51910222846FDF706FB761C48
:1032C000F1B23846FFF7CEFF04F12000044610218A
:1032D00000F044FF214605F18000BDE8F0411022D6
:1032E000FDF7F3BABAFD0008B80800202DE9F04157
:1032F000203A0C460546D6B27F2802D900258C1C00
:10330000E4B21E4FDFF87880102B2146284614D0F7
:10331000FFF7A8FF06EB4601A7F50A7000EB410096
:10332000062100F01BFF08EBC410B91928440A68F5
:10333000026089888180BDE8F081FFF793FF07EB89
:1033400006160821304600F009FF08EBC4104719A3
:103350003068386070687860641CE1B22846FFF716
:1033600081FF06F10800082100F0F8FEB068C7F8F8
:103370008000F068C7F88400DDE70000CAF70008A5
:10338000B80800202DE9F041984617460E4604463D
:1033900000250DE0434631462046FFF7A7FF0834DD
:1033A000E4B2782C02D90024B61CF6B26D1CEDB242
:1033B0007A5D002AEED1BDE8F081C0B209B100F01B
:1033C000B6BE00F09DBE00000149086270470000D3
:1033D00000000E4202490A6842EA80000860704715
:1033E000007000400548016841F002010160044896
:1033F000016841F00401016030BF70470070004077
:1034000010ED00E00B4B10B51A6840F60344A243E0
:1034100002431A600848026842F00402026001296F
:1034200005D020BF016821F00401016010BD30BF4C
:10343000F8E700000070004010ED00E00149C1F81D
:10344000A000704700000E42044A0029116801D014
:10345000014300E0814311607047000030380240B2
:10346000044A0029116801D0014300E08143116042
:103470007047000040380240044A0029116801D01A
:10348000014300E08143116070470000443802406E
:1034900070B5204B1968204C11F00C0104D0661057
:1034A000042903D0082903D004601BE0066019E05A
:1034B000184A121F1168C1F38055116801F03F01CD
:1034C00015B1B6FBF1F101E0B4FBF1F1146812683B
:1034D000C4F388146143C2F30142521C5200B1FB91
:1034E000F2F1016019680F2202EA11110B4A545CD3
:1034F0000168E14041601C68072505EA9424145DD9
:1035000021FA04F484601B6805EA5333D25CD1408D
:10351000C16070BD083802400024F400F4070020A8
:1035200002460020510901290BD002290CD008497C
:10353000096802F01F02012393400B4200D00120D2
:10354000704703497439F3E70149091FF0E70000A8
:10355000743802400149086070470000800E4742FD
:1035600001490860704700003C0E4742C0F301214A
:10357000032907D1074B1968074A21F4F8110240C3
:103580000A431A60034968310A68C0F30B0002431A
:103590000A60704708380240FFFCFF0F38B5002270
:1035A000124C0092CA222260532222600F4A1C3A17
:1035B0000029116802D00143116012E081431160BB
:1035C0000A4A183A95131168009B01EA10215B1C06
:1035D0000093AB4201D00029F5D0116811EA102008
:1035E00000D00120FF21216038BD000024280040C8
:1035F00038B5002000905020EFF3118480F311883B
:10360000BFF34F8FBFF36F8F4FF48055284600F004
:10361000A5F8012810D10F480078022805D00E48DF
:103620006A462021006809F061FC284600F03CF859
:103630004FF40030FEF75CFF009838B107494FF0B7
:1036400080500860BFF34F8FBFF36F8F84F31188F2
:1036500038BD0000000000204C00002004ED00E018
:10366000010901EB810100F00F0000EB4100C0B245
:103670007047002103E0491C0A38C9B2C0B20A28C9
:10368000F9D2090740EA11607047000080B240F0AB
:103690008000C1430348026802F0800211430160C8
:1036A000704700000C280040C0F30F1040F080006D
:1036B000C1430348026802F0800211430160704771
:1036C0000C28004008B50D4900200090086840060D
:1036D00012D44FF0FF3008608B130868009A00F096
:1036E0004000521C00929A4201D00028F5D0086890
:1036F000400601D4002008BD012008BD0C28004070
:103700000248016821F08001016070470C280040E8
:10371000020010B50F480C4601680F4801EA00018D
:103720004FEA1140E070C1F30423637001F03F03DE
:10373000A370C1F3423121700AD1FFF791FFE0700D
:103740006078FFF78DFF6070A078FFF789FFA070A9
:1037500010BD0000042800403FFFFF000B4A00217D
:10376000126802F00403094A383A126803EAD033B7
:1037700002401A43064B1B6803EA101003D00004F2
:10378000000C00D00121084670470000402800408E
:103790000C280040020010B510480C460168104883
:1037A00001EA0001C1F305402070C1F306236370F4
:1037B00001F07F03A3704FF0400303EA1141E17071
:1037C0000AD1FFF74DFF20706078FFF749FF607066
:1037D000A078FFF745FFA07010BD00000028004052
:1037E0007F7F7F0030B50E4DCA222A6053222A60A7
:1037F0000B4C0B4B1C3C1C33002920F004022168AD
:1038000000F0040004D0114321601968014303E073
:1038100091432160196881431960FF20286030BD01
:103820002428004070B5124D04460026CA202860A6
:1038300053202860FFF746FFA8B10D481C380168E7
:1038400021F04001016001682268114301600848CD
:10385000A168143801600168A28841EA0241016050
:10386000FFF74EFF0126FF202860304670BD0000A4
:103870002428004070B514460D46264A0021002831
:1038800010684FEA406005D000281CDA2078FFF766
:10389000E7FE19E0002800DBE1702078FFF7E9FE81
:1038A00006046078FFF7E5FE46EA0026A078FFF7F9
:1038B000E0FE0643E07846EA0046207BFFF7D9FEAB
:1038C00046EA006010E0E170207BFFF7C9FEA078B7
:1038D0002178E27840EA01406178090241EA024138
:1038E0000843217B40EA0160A168CA22084361685D
:1038F000084308491C310A6053220A60B5F5807FED
:1039000004D00A1F1060FF20086070BD014A143205
:10391000F8E700000828004070B50C4600260100BA
:1039200060780FD0FFF79CFEA078FFF799FEA07893
:10393000E17840EA014560782178000240EA4130B0
:10394000054315E0C10603D520F010000A30607071
:10395000E078FFF78EFE05046078FFF78AFE45EAFF
:103960000025A078FFF785FE0543207845EA40351D
:103970000D4CCA20206053202060FFF7A3FE78B1D1
:103980000A480540084820380560FFF7B9FE064898
:103990001C380068800602D400F098F800B10126B7
:1039A000FF202060304670BD242800403FFFFF000C
:1039B0002DE9F0410C460026234F0100207839689C
:1039C00032464FEA416104D0002930DAFFF748FE61
:1039D0002EE0002900DBE270FFF74BFE0504607863
:1039E000FFF747FE45EA0025A078FFF742FE0543B2
:1039F000E07845EA0045144CCA201C34206053206E
:103A00002060FFF75FFE68B1104805400E48083897
:103A10000560FFF775FE3868800602D400F056F89E
:103A200000B10126FF2020603046BDE8F081E27041
:103A3000A078217840EA01456078E178000240EA08
:103A400001400543D7E70000082800407F7F7F0042
:103A50000549CA220A6053220A60034A103A1060DC
:103A6000FF200860704700002428004038B500207F
:103A700000905020EFF3118480F31188BFF34F8F33
:103A8000BFF36F8F4FF480452846FFF767FE01288C
:103A90000BD10C486A461021006809F027FA284625
:103AA000FFF702FE2802FEF723FD009838B1064911
:103AB0004FF080500860BFF34F8FBFF36F8F84F3D8
:103AC000118838BD4C00002004ED00E018B500203E
:103AD000104B0090CA201860532018600D49183907
:103AE000086820F0A00008604FF400340868009ACD
:103AF00000F02000521C0092A24201D00028F5D014
:103B00000868800601D5012000E00020FF2119602F
:103B100018BD000024280040084ACA211160532122
:103B2000116006491C390B6823F007030B600B6812
:103B300003430B60FF201060704700002428004002
:103B400018B50021134B0091CA2119605321196047
:103B500010491C390028086803D040F480600860D0
:103B600014E020F4806008600A4918398C13086852
:103B7000009A00F00400521C0092A24201D00028DA
:103B8000F5D00868400701D4002000E00120FF21A3
:103B9000196018BD2428004010B58A0721F00304DD
:103BA0000849120F21440F23D1F8084893409C4341
:103BB000C1F80848D1F8083890400343C1F80838E4
:103BC00010BD0000003001400CB5002227490092D2
:103BD0000192086840F4803008604FF4A043086800
:103BE00000F4003001900098401C0090019810B93A
:103BF00000989842F3D10868800334D501200190E1
:103C00001A484030026842F0805202601848026848
:103C100042F44042026015480830026802600268BF
:103C200042F400420260026842F4A0520260031FA4
:103C3000104A1A600A6842F080720A600A689201AB
:103C4000FCD50D4940F205720A60016821F00301BC
:103C50000160016841F0020101600168C1F3810166
:103C60000229FAD10CBD01920CBD000000380240BF
:103C70000070004008544007003C024010B550203E
:103C800080F31188BFF34F8FBFF36F8F09F096FD5C
:103C900018B104494FF080500860002080F311886B
:103CA00010BD000004ED00E0124810B5016841F4B9
:103CB000700101601048016841F0010101600E4A85
:103CC00000210832116002680C4B1A400260031D8B
:103CD0000B4A1A60026822F48022026006480C3007
:103CE0000160FFF771FF03494FF000608039086001
:103CF00010BD000088ED00E000380240FFFFF6FE36
:103D0000103000240029018802D041F0010101E0B7
:103D100021F0010101807047002930F8441F02D0D2
:103D200041F4004101E0C1F30E0101807047000041
:103D300070B5028C22F480520284058C8288838BB9
:103D40000C8823F4E6464FF6FF7303EA0424344359
:103D500025F400568D8903EA053535434E8803EA7C
:103D600006362E43084DA84202D0084DA84205D180
:103D700022F480450A8A03EA82122A4382808483DD
:103D800089680164068470BD0000014000040140A0
:103D90000164704730B50288164C174DA0420DD013
:103DA000A8420BD0B0F1804F08D0144B984205D0F8
:103DB000134B984202D0134B984203D122F0700368
:103DC0004A881A43104B984206D0104B984203D0B1
:103DD00022F440730A891A4302804A68C2620A8840
:103DE0000285A04201D0A84201D1897A0186012131
:103DF000818230BD00000140000401400004004009
:103E000000080040000C004000100040001400407A
:103E10002DE9F84300255020EFF31184009580F33D
:103E20001188BFF34F8FBFF36F8F1B4F40F22558A0
:103E30004146384600F098F8F8B1384600F022F9CB
:103E4000174EC1B2154A30681154401C3060232906
:103E500001D040280DD382F84000124800236A4662
:103E60000E49006809F07AFA41210C48FCF7ACFDD4
:103E700035604146384600F067F8009838B10A4985
:103E80004FF080500860BFF34F8FBFF36F8F84F304
:103E90001188BDE8F88300000010014021110020C6
:103EA000D80700205000002004ED00E02DE9F84381
:103EB00000255020EFF31184009580F31188BFF3A3
:103EC0004F8FBFF36F8F1B4F40F225584146384646
:103ED00000F04AF8F8B1384600F0D4F8174EC1B2F5
:103EE000154A30681154401C3060232901D0402805
:103EF0000DD382F84000124800236A460E4900683C
:103F000009F02CFA41210C48FCF75EFD3560414672
:103F1000384600F019F8009838B10A494FF080503F
:103F20000860BFF34F8FBFF36F8F84F31188BDE834
:103F3000F883000000480040E0100020D007002077
:103F40005000002004ED00E00A0A01219140C9431D
:103F5000018070470029818902D041F4005101E0BD
:103F600021F400518181704770B501F01F050126D1
:103F70000024C1F3421306FA05F2012B0FD0022BE5
:103F80000FD0838A4FEA11210088134206FA01F606
:103F900000EA060001D000B10124204670BD8389EB
:103FA000F0E7038AEEE710B5C1F3421301F01F04F6
:103FB0000121A140012B07D0022B07D01430002A89
:103FC000026805D00A4304E00C30F8E71030F6E749
:103FD0008A43026010BD00007FB50446008A0D468A
:103FE000C98820F4405001432182A08941F20C612C
:103FF0008843A9882A8911436A8902431143A18110
:10400000A08A20F44071A8890843A0826846FFF77F
:104010003FFA1A48844202D01948844201D10398D9
:1040200000E00298A189090400EBC00101EB001037
:10403000296801D5490000E08900B0FBF1F0642255
:10404000B0FBF2F109010B096FF018056B4300EBAF
:104050008300A3891D044FF0320306D503EBC00093
:10406000B0FBF2F000F0070005E003EB0010B0FB3E
:10407000F2F000F00F00084320817FBD00100140E6
:10408000001401408088C0F308007047FEE700007C
:104090002DE9F04781460024012004F085FF164DEC
:1040A0000026C5F8BC62154FC7F8A862012003F0CE
:1040B000C3FE4FF0010AA846C4F107010AFA01F055
:1040C000554610EA090F02D0C7F8A85201E0C7F818
:1040D000A862012003F0B0FEC8F8BC52012003F032
:1040E000ABFEC8F8BC62012003F0A6FE641C082CDD
:1040F000E2D3BDE8F08700000080404200804142EA
:1041000010B5044604F090FF7820FFF7C1FF05F0DA
:1041100001F80020FFF7BCFF04F0FCFF2046FFF78A
:10412000B7FF04F0F7FFBDE8104004F0B9BF10B5C9
:10413000044604F079FF7820FFF7AAFF04F0EAFFB5
:104140004020FFF7A5FF04F0E5FF2046FFF7A0FFA2
:1041500004F0E0FFBDE8104004F0A2BF70B50D46CA
:10416000044604F061FF7820FFF792FF04F0D2FFCD
:10417000402001E014F8010BFFF78AFF04F0CAFFAA
:104180006D1EF7D2BDE8704004F08ABF70B50C46D2
:10419000054604F049FF7820FFF77AFF04F0BAFFE4
:1041A000402000E02846FFF773FF04F0B3FF641ED1
:1041B000F8D2BDE8704004F073BF03B40198410029
:1041C000009850EAC12018BF04204A0D18BF40F0E3
:1041D000010040F2FF72B2EB515F08BF40F00200F5
:1041E000012808BF052002B0704700000000000051
:1041F00070B5C1482DED020B2DED0E8B82B0119DD7
:1042000025F000449FEDBEDB9FEDBFEB84423EDB1B
:10421000A4F140511098A1F17F6108430FD0BC4830
:10422000844202DC28D1109830B39DED100B02B00F
:10423000BDEC0E8B02B0BDE8704000F069BC9DED96
:10424000100B53EC1D2B51EC100B09F05DFF9DED95
:10425000100B41EC180B53EC1E2B51EC100B09F01A
:1042600053FF53EC182B09F04FFD41EC100B02B03B
:10427000BDEC0E8B02B070BD0120FCF773FC02B0E8
:10428000BDEC0E8B02B0BDE8704000F055BCA148FB
:104290009FEDA18B844256DA9DED100BB4F1795F4E
:1042A0000ADA51EC100BFFF788FF042808BF00F072
:1042B00053FC9DED100BDAE753EC102B51EC100B77
:1042C00009F022FF41EC190B95480621B0EE490A8E
:1042D000F0EE690A784400F09FFB53EC192B51EC87
:1042E000100B09F011FF41EC1A0B8E48B0EE490A91
:1042F000F0EE690A0421784400F08EFB53EC192B90
:1043000051EC100B09F000FF53EC182B09F0FCFCEA
:1043100041EC100B51EC1A0B53EC102B09F09CFDE7
:10432000CDE900019DED000B53EC102B9DED100B22
:1043300051EC100B09F0E8FE9DED101B53EC112B16
:1043400009F0E2FCD2E09DED100B51EC100B04F0F3
:104350006DFB53EC182B09F0D5FF9FED730BCDE9E6
:10436000000153EC102B9DED000B51EC100B09F0EC
:10437000CBFE41EC190B6E480621B0EE490AF0EE77
:10438000690A784400F048FB53EC192B51EC100BF0
:1043900009F0BAFE41EC1B0B6648B0EE490AF0EE9C
:1043A000690A0421784400F037FB53EC192B51ECD7
:1043B000100B09F0A9FE53EC182B09F0A5FC41ECF9
:1043C0001C0B51EC190B08F0A3F841EC180B5A48E0
:1043D0009FED5BABA04222DC53EC1C2B51EC1B0B82
:1043E00009F03AFDCDE900019DED000B51EC180BF1
:1043F00053EC102B09F088FE53EC182B09F084FCC9
:1044000053EC1A2B09F080FE53EC1D2B0AF052F8E6
:1044100053EC1E2B09F076FF41EC100B5FE08DEDA5
:10442000008B002000909DED000B51EC180B53EC1D
:10443000102B09F069FC9DED000B41EC1E0B53ECB9
:10444000102B51EC100B09F05FFE53EC192B09F007
:1044500059FF53EC1E2B09F0FFFC41EC190B53ECF8
:104460001C2B51EC1B0B09F0F7FC41EC1B0B53EC24
:104470001A2B51EC190B09F047FE53EC1D2B09F0D8
:1044800041FF41EC190B53EC1A2B51EC180B09F0BE
:104490003BFE53EC1B2B09F037FE53EC192B0AF0B3
:1044A00009F89DED000B41EC180B53EC1A2B51EC65
:1044B000100B09F029FE9FED249B53EC192B09F0FA
:1044C00021FF41EC100B51EC180B53EC102B09F0B1
:1044D000F1FF53EC192B09F015FF41EC100B002DE7
:1044E0003FF7C5AE51EC100B09F0D0FB41EC100BBF
:1044F000BDE60000000000000000F03F00000000EA
:10450000075C143326A6913C182D4454FB21F93F37
:104510000000F07F0000E03F000000000000F03FDE
:104520003832010046320100000000000000E03F88
:104530008A310100983101003333EF3F0000000061
:104540000000000000000040182D4454FB21E93F0A
:1045500070B59B482DED020B2DED068B079D25F0C8
:104560000044A04218DC9748844202DC0AD1069835
:1045700040B19DED060BBDEC068B02B0BDE870406E
:1045800000F0C6BA002DCCBF9FED8F0B9FED900BB6
:10459000BDEC068B02B070BD8F48A04215DD8F4880
:1045A000A042D8BF4FF0FF3458DD9DED060B51EC13
:1045B000100BFFF702FE042808BF00F0CDFA9DEDB6
:1045C000060BBDEC068B02B070BD9DED060B51ECE9
:1045D000100B04F02BFACDE9060181489FED828B88
:1045E000A0423CDD8248A0421FDD00249FED82AB4B
:1045F0009DED060B53EC1A2B51EC100B09F084FBCC
:104600009DED060B41EC190B53EC1A2B51EC100BE2
:1046100009F07AFD53EC182B09F04CFF53EC192BE1
:1046200009F01AFCCDE9060149E09DED060B0124D5
:1046300053EC182B51EC100B09F066FB9DED060BAB
:1046400041EC190B53EC182B51EC100B09F032FF15
:1046500053EC192B09F000FCCDE906012FE0684866
:10466000A0421FDD02249FED689B9DED060B53ECDD
:10467000192B51EC100B09F047FD53EC182B09F0E6
:1046800043FB9DED060B41EC180B53EC192B51EC41
:10469000100B09F00FFF53EC182B09F0DDFBCDE9EF
:1046A00006010CE09DED060B032453EC102B9FED4F
:1046B000580B51EC100B09F0CFFBCDE906019DED35
:1046C000060B53EC102B51EC100B09F01DFD41ECC7
:1046D000180B53EC182B09F017FD41EC190B4E4841
:1046E0000621B0EE490AF0EE690A784400F094F928
:1046F00053EC182B51EC100B09F006FD41EC180B94
:104700004648B0EE490AF0EE690A0521784400F007
:1047100083F953EC192B51EC100B09F0F5FC41EC2B
:10472000100B51EC180B53EC102B002C0EDA09F087
:10473000EBFA9DED061B53EC112B09F0E5FC9DED0A
:10474000061B53EC112B09F0DDFD35E009F0DCFA16
:104750009DED061B53EC112B09F0D6FC41EC100B20
:104760002F48784400EBC40090ED001B51EC100B77
:1047700053EC112B09F09EFE9DED061B53EC112B03
:1047800009F098FE41EC100B2648784400EBC40079
:1047900090ED001B51EC100B53EC112B09F0B2FD06
:1047A00041EC100B002DA2BFBDEC068B02B070BD1A
:1047B00051EC100B09F06AFA41EC100B01E7000014
:1047C000000010440000F07F182D4454FB21F93FF5
:1047D000182D4454FB21F9BF0000DC3F0000203EAF
:1047E0000000F33F00000000000000000000F03F68
:1047F0000000E63F00000000000000000000004054
:104800000080034000000000000000000000F83FAE
:10481000000000000000F0BFE22E0100982E010011
:10482000222E0100DA2D010070B56B4E2DED040B28
:104830002DED028B82B0DDF81CC0DDE905235C4262
:104840002CF000411C4341EAD474049D22F0004046
:10485000B44205D86C422C4340EAD474B4420BD91C
:104860009DED061B9DED040B02B0BDEC028B04B068
:10487000BDE8704000F056B9ACF14054A4F17F643B
:104880001C430BD0022404EAAC7444EAD2740543FE
:104890009FED538B9FED542B07D015E09DED040B3E
:1048A00051EC100B03F036FA42E0002C11BF012C42
:1048B0009DED040B02B0BDEC028B04BF04B070BDD3
:1048C000022C38D0032C3BD00B439FED491B9FEDAE
:1048D0004A0B0AD0B14218D1B04209D121F080412F
:1048E00020F08040079105900FE0002A15DA10E0D3
:1048F000434B7B44002C08BF93ED000B0DD0012CE3
:1049000010D0022C17D0032C1AD0B0421DD1002A8F
:1049100003DAB0EE410AF0EE610A02B0BDEC028BA0
:1049200004B070BD93ED000B51EC100B09F0AEF923
:1049300041EC100BF1E7B0EE480AF0EE680AECE744
:10494000B0EE420AF0EE620AE7E7401A00153C2892
:10495000C8BF8DED000B19DCBCF1000FBEBF10F11C
:104960003C0F9FED290B8DED000B0FDB9DED060B32
:1049700053EC102B9DED040B51EC100B09F06CFA6D
:1049800004F054F803F0C6F9CDE90001002C08BF8B
:104990009DED000BC1D0012C10D0022C9FED1C0B03
:1049A00053EC102B9DED000B51EC100B0DD009F0CA
:1049B00081FD53EC182B09F07DFDB9E7019880F0DB
:1049C000004001909DED000BA7E709F073FD53EC4B
:1049D000182B09F097FCABE70000F07F0000000007
:1049E000182D4454FB210940182D4454FB2109C0C3
:1049F000182D4454FB21F9BF182D4454FB21F93FD5
:104A00000A2D01000000000000000000000000006E
:104A1000075C143326A6A13C70B504462DED028B2D
:104A20004D1E00EBC500B0EE408AF0EE608A90EDBE
:104A3000000B35F0060017D053EC182B51EC100B7F
:104A400009F062FB41EC100B6D1E04EBC50090ED0C
:104A5000001B51EC100B53EC112B09F055F941ECF4
:104A6000100B35F00600E7D1022D36D0042D1CD0F6
:104A7000062D1CBFBDEC028B70BD53EC182B51EC06
:104A8000100B09F041FB94ED0A1B53EC112B09F0BC
:104A90003BF953EC182B09F037FB94ED081B53EC52
:104AA000112B09F031F941EC100B53EC182B51ECA0
:104AB000100B09F029FB94ED061B53EC112B09F0A8
:104AC00023F953EC182B09F01FFB94ED040B53EC66
:104AD000102B09F019F941EC100B53EC182B51EC89
:104AE000100B09F011FB94ED021B53EC112B09F094
:104AF0000BF953EC182B09F007FB94ED001B53EC5A
:104B0000112B09F001F9BDEC028B41EC100B70BDCB
:104B100010B553EC102B51EC100B09F0F5F841ECEB
:104B2000100B10BD10B553EC112B51EC100B09F00C
:104B3000EBF841EC100B10BD9FED050B10B553ECDD
:104B4000102B51EC100B09F087F941EC100B10BD44
:104B500000000000000000009FED050B10B553ECB5
:104B6000102B51EC100B09F0CFFA41EC100B10BDDB
:104B7000000000000000001030380A2801D2012097
:104B800070470020704700002DE9F05F4F4E00276E
:104B9000C6F898720125C6F89C524D4CC4F898523C
:104BA000C4F8A052022004F50B7403F043F9206806
:104BB000A4F50B74002865D0DFF81891D9F8140219
:104BC000002865D0DFF81081D8F81802F0B3DFF8BC
:104BD0000CA1DAF82402D0B3C6F89852C6F89C7239
:104BE000C4F89852C4F8A052022003F023F9D4F874
:104BF0002C0268B3D9F8140258B3D8F8180248B395
:104C0000DAF8240238B3C6F89852C6F89C5200204D
:104C1000A346C4F89802C4F8A052022004F50B740D
:104C200003F008F9206878B3D9F814024C4660B351
:104C3000D8F81802474648B3DAF8240238B3C6F861
:104C40009852C6F89C52CBF8985205E022E023E037
:104C500024E025E026E027E00020CBF8A002022097
:104C60000BF50B7603F0E6F8306838B3D4F814028D
:104C700030B3D7F8180228B3DAF8240220B34E2054
:104C8000BDE8F09F3120FBE710E011E012E013E0F7
:104C90003220F5E73320F3E74120F1E73420EFE756
:104CA0003520EDE73620EBE74220E9E73720E7E75C
:104CB0003820E5E73920E3E74320E1E72A20DFE772
:104CC0003020DDE72320DBE74420D9E700804142A4
:104CD00000004142000042420000404200004342C6
:104CE00070470000FEB506460D460024684603F0F6
:104CF000C1FE00229FED1B1A6B46012156F82200CF
:104D000055F82270C01B00D5404200EE100A03EB9C
:104D10008200B8EEC00AD0ED000A20EE010AF5EEDE
:104D2000C00AF1EE10FA0DD0C0EE201AB7EE000A5C
:104D30000D4F31EEC00AB0EEC00A10EE100AB842B4
:104D400007DC09E010EE100A084F3844084FB8425B
:104D500002D301FA02F00443521C032ACEDB2046A0
:104D6000FEBD000000008037295C0F3E666666C10C
:104D70009A99D9001CB501210846FEF765FB01216F
:104D80000802FEF779FB2020009003208DF8040034
:104D900000248DF8074069461348FDF7F1FB1348DE
:104DA000046044608460C460FDF74CFA0F484FF023
:104DB00040711838016004710121417184600461FF
:104DC00001750B4C01462046FDF75CFA00230122D9
:104DD00005212046FDF77CFA01212046FDF728FA3F
:104DE0002046FDF7AFFA1CBD00000240D0100020A5
:104DF0000020014010B50A4C02212046FDF73BFA85
:104E00000028F9D002212046FDF70FFA2046FDF7D1
:104E10002FFA40F6E44148433F2190FBF1F010BDEA
:104E20000020014017A003F02FF8FFF7E3FF06462C
:104E30004FF4C87B4FF000084FF400394FF4803A2C
:104E40001D4FFFF7D7FF0446851B05F1C8005845E5
:104E500013D907F093FCC7F8388007F0AFFC002D9A
:104E600001DD494600E05146F86C07F0F8FF2246A4
:104E7000314612A003F008F82646642007F050FDE2
:104E8000DFE700005B6170705F7461736B5F61648A
:104E9000635D206372656174652073756363657318
:104EA0007320616E642073757370656E6420736522
:104EB0006C66200D0A000000000000205B6170702D
:104EC0005F7461736B5F6164635D206164635F76CF
:104ED0006F6C5F6C6173743D2564206164635F7601
:104EE0006F6C3D25640D0A001CB517A002F0CCFFC5
:104EF0001E4C1F4D4FF0FF3632466946A06D08F03C
:104F00008BFA0128F8D1DDE900121AA002F0BCFFEB
:104F10000198002800980ED0C5F8A00202E00120F8
:104F200007F0FEFC0198401E0190401CF7D100984C
:104F300080F001000090C5F8A00200231A4619462F
:104F4000A06E08F059F9D7E75B6170705F74617308
:104F50006B5F626565705D20637265617465207367
:104F60007563636573730D0A000000000000002084
:104F7000008042425B6170705F7461736B5F626559
:104F800065705D20626565702E7374613D256420D7
:104F9000626565702E6475726174696F6E3D25641B
:104FA0000D0A00008CB00024009401940294039434
:104FB000049427A0059402F067FF002007F098FEF4
:104FC00030A002F061FF374D41F27076684602F082
:104FD00091FF002837D10294039404940594686AE1
:104FE000012807D19DF803309DF802202EA102A8C8
:104FF000FBF74AFA686A022807D19DF801309DF84C
:1050000000202DA102A8FBF73FFA06208DF818001A
:1050100028208DF8190003208DF81A0002A80790A7
:1050200010208DF820000023642206A9E86D08F006
:10503000E3F80146012802D023A002F025FF02A9CF
:1050400030A002F021FF304607F06AFCBEE7000006
:105050005B6170705F7461736B5F6468745D206323
:105060007265617465207375636365737320616E27
:10507000642073757370656E642073656C66200DB3
:105080000A0000005B6170705F7461736B5F64683D
:10509000745D20726573756D6520737563636573E8
:1050A000730D0A000000002054656D703A253032FF
:1050B000642E25640000000048756D693A25303281
:1050C000642E2564000000005B6170705F74617382
:1050D0006B5F6468745D2078517565756553656EA6
:1050E00064206F6C656420737472696E67206572EA
:1050F000726F7220636F64652069732025640D0AE6
:10510000000000005B6170705F7461736B5F6468C6
:10511000745D2025730D0A0090B024224D4901A82A
:10512000FBF718FC1E208DF8290040208DF8380070
:1051300000274FF008098DF82A708DF8399046A0A5
:1051400002F0A2FE09214DA002F09EFE5A4D4FF042
:10515000FF3A4FF4801B0DF10408CDF800A00023A6
:1051600001225946E86C07F0C9FEC002F5D507F0E8
:1051700005FBAF6307F022FB03F06EFC002406463C
:10518000012101FA04F0304202D1641C092CF8D349
:10519000286B012818D158F82400002814D0214683
:1051A00046A002F071FE8DF8289058F824000D906A
:1051B000002364220AA9E86D08F01EF801460128C0
:1051C00002D047A002F060FE082E2AD00CDC012E8F
:1051D00015D0022E1CD0042EBFD151A002F054FED7
:1051E000286B0028B9D131E0402E1FD0802EB4D1D9
:1051F00057A002F049FE286B012822D026E063A0C8
:1052000002F042FE286B0028A7D14FF4803114E051
:1052100069A002F039FE286B00289ED14FF40031BE
:105220000BE071A003E04FF4802106E07BA002F0C8
:105230002BFE286B002890D1F5E7E86C07F00FFEF5
:105240008BE74FF47A7007F06BFB2F634FF400216C
:10525000F3E7000020E900085B6170705F74617320
:105260006B5F676573747572655D206372656174E9
:105270006520737563636573730D0A005B617070FD
:105280005F7461736B5F676573747572655D2070C1
:1052900069635F676573747572655F69636F6E5F7D
:1052A00074626C2061727261792073697A65206919
:1052B00073202564200D0A00000000205B617070DF
:1052C0005F7461736B5F676573747572655D20678A
:1052D000657374757265206973202564200D0A005A
:1052E0005B6170705F7461736B5F67657374757217
:1052F000655D2078517565756553656E64206F6CCA
:1053000065642070696374757265206572726F726E
:1053100020636F64652069732025640D0A00000016
:105320005B6170705F7461736B5F676573747572D6
:10533000655D204745535F4C45465420747269674C
:10534000676572204B45595F4241434B0D0A00008F
:105350005B6170705F7461736B5F676573747572A6
:10536000655D204745535F434F554E545F434C4F57
:10537000434B574953452074726967676572204BE8
:1053800045595F4241434B0D0A0000005B6170705C
:105390005F7461736B5F676573747572655D2047D9
:1053A00045535F55502074726967676572204B459D
:1053B000595F55500D0A00005B6170705F74617336
:1053C0006B5F676573747572655D204745535F4415
:1053D0004F574E2074726967676572204B45595F5D
:1053E000444F574E0D0A00005B6170705F7461732B
:1053F0006B5F676573747572655D204745535F52D7
:10540000494748542074726967676572204B455953
:105410005F454E5445520D0A000000005B617070FC
:105420005F7461736B5F676573747572655D204748
:1054300045535F434C4F434B574953452074726962
:1054400067676572204B45595F454E5445520D0ABA
:1054500000000000F0B587B00024A0A0FBF708F81A
:10546000012007F049FEA64D6864012007F044FEC4
:10547000A86403220021012007F050FE6866032281
:105480000021012007F04AFEA86607F0DBFCE86473
:1054900000224121042007F041FE2865002201215D
:1054A000042007F03BFE686500220821042007F075
:1054B00035FEA86500221421102007F02FFEE865B4
:1054C00000220121042007F029FE2866FDF7FEFDD9
:1054D000B420FDF795FEFDF76DFD8A480021009090
:1054E000082380220846FDF7C3FD4FF4FA663046D4
:1054F00007F016FAFDF75EFD002211460820FDF7C1
:10550000C7FE012200211820FDF7C2FE0222002161
:105510002820FDF7BDFE032200213820FDF7B8FE4C
:10552000042200214820FDF7B3FE05220021582067
:10553000FDF7AEFE062200216820FDF7A9FE072236
:1055400003212020FDF7A4FE082203213020FDF7CF
:105550009FFE092203214020FDF79AFE0A22032123
:105560005020FDF795FE0B2206210020FDF790FE4E
:105570000C2206211020FDF78BFE0D220621522061
:10558000FDF786FE0E2206216220FDF781FE0F2226
:1055900006217020FDF77CFE7710384607F0C0F931
:1055A00003F0BCFF03F04AFF02F0BCFB03F0C4FEB3
:1055B0004FF4165002F0D6FB02F07EFCFFF7DAFB48
:1055C00006F0E2FD06F070FD06F0AEF800282FD0E0
:1055D0004DA0FAF74DFF0120686356480021009066
:1055E000082340220846FDF743FD162204214020EF
:1055F000FDF74EFE172204215A20FDF749FE1E2218
:1056000006214020FDF744FE1F2206215A20FDF707
:105610003FFE304607F084F905F114010520CDE97D
:10562000000100234FF4007243A1484808F086F8B7
:10563000FDF75EFB05F036FA02F08AFA03F0F2FDA0
:1056400007F09CF8424E0CE006EBC000D0E90412D3
:10565000CDE900120289C3684168604608F06EF81F
:10566000641C04EB440056F830C0BCF1000FEBD1D1
:1056700007F0A4F83748012300901A46394636A0AF
:1056800008F030FAE86108F093F80246002003467B
:1056900000900121E86908F073FAFDF78BFC002403
:1056A000E006000E10233E220321FDF71FFE3220EC
:1056B00007F036F9641C102CF2D3FDF77BFC2A4866
:1056C0000068029002A805F065F8002007F04EF986
:1056D00026A0FAF7CDFE07B0F0BD00005B61707048
:1056E0005F7461736B5F696E69745D20637265617D
:1056F000746520737563636573730D0A00000000A1
:1057000000000020BA0901085B6170705F7461736A
:105710006B5F696E69745D2070616A37363230750F
:105720003220696E697420737563636573730D0A43
:1057300000000000BA0D01086170705F7461736B46
:105740005F67657374757265000000001951000889
:1057500088E700086DC300084175746F52656C6F6F
:10576000616454696D657200040200205B617070B1
:105770005F7461736B5F696E69745D206E657276CC
:1057800065722072756E20686572650D0A000000F2
:105790000EB54E208DF808001AA002F075FB012509
:1057A0001426204CAF1E03F09FFD8DF808004E28F4
:1057B000F9D001461CA002F067FB0023642202A975
:1057C000206E07F019FD0146012802D01EA002F04C
:1057D0005BFBCDE90056002364226946A06D07F00B
:1057E0000BFD0146012802D024A002F04DFB3946F2
:1057F000A06E07F0ADFE01460128D4D02C4802F07F
:1058000043FBD0E75B6170705F7461736B5F6B62C9
:10581000645D20637265617465207375636365738D
:10582000730D0A00000000205B6170705F7461738B
:105830006B5F6B62645D206B626420707265737372
:10584000202563200D0A00005B6170705F74617336
:105850006B5F6B62645D2078517565756553656E2D
:1058600064206B6264206572726F7220636F64657E
:105870002069732025640D0A000000005B617070D0
:105880005F7461736B5F6B62645D207851756575E1
:105890006553656E642062656570206572726F7213
:1058A00020636F64652069732025640D0A00000081
:1058B0000479010886B083A002F0E6FADFF82492AA
:1058C000DFF82482894E4FF4803A4FF4003B4FF0CA
:1058D000FF300090002301220F21F06C07F00EFB37
:1058E0000546142007F01CF806F048FF0020B063BE
:1058F00006F064FFE80737D00620FDF708FBD9F86B
:1059000000024F4600282CD1002406E0142007F0A6
:1059100007F82046641C642803D2D7F80002002848
:10592000F4D0642C10D372A002F0AEFA544606E014
:105930002146F06C07F093FAFA2006F0F1FFD7F851
:1059400000020028F4D00CE072A002F09DFA51464B
:10595000F06C07F084FA0146012802D0744802F086
:1059600093FA0620FDF7DEFAA8072FD50820FDF7E9
:10597000CEFAD8F80802474628BB6EA002F084FA97
:10598000002406E0142006F0CBFF2046641C6428A7
:1059900003D2D7F808020028F4D0642C0FD36CA0EF
:1059A00002F072FA5C4606E02146F06C07F057FA06
:1059B000FA2006F0B5FFD7F808020028F4D05946BF
:1059C000F06C07F04CFA0820FDF7ACFA680732D506
:1059D0000920FDF79CFAD8F80C024746F8B965A0F3
:1059E00002F052FA002406E0142006F099FF204647
:1059F000641C642803D2D7F80C020028F4D0642C6D
:105A00000ED363A002F040FA4FF48051F06C07F01F
:105A100026FA014601280BD0664802F035FA07E065
:105A200054A002F031FA4FF48021F06C07F017FA1D
:105A30000920FDF777FA28077FF549AF0A20FDF71F
:105A400066FAD8F810024546002837D1002406E04F
:105A5000142006F065FF2046641C642803D2D5F8A4
:105A600010020028F4D0642C20D353A002F00CFACA
:105A700006F084FE306A38B10020306206F09EFEE7
:105A8000306A18B1012002E00120F6E702208DF80B
:105A900004000023642201A9F06D07F0ADFB01466C
:105AA00001280BD04DA002F0EFF907E058A002F05A
:105AB000EBF94FF40021F06C07F0D1F90A20FDF763
:105AC00031FA04E75B6170705F7461736B5F6B65E3
:105AD000795D2063726561746520737563636573B6
